:10063A0050617373776F72643A005475726500453E
:10064A00727200506C6573656120726577726974A5
:03065A0065210017
:10031600E4F529F52A12072A7BFF7A06793A7D0148
:100326007F0112065D12018D752B008F2CE52C4581
:100336002B60F2D3E52C940AE52B94005029AE2BC2
:100346007C007D0A120138AA04AB05AE29AF2A7CCF
:10035600007D0A120126EF2BF52AEE3AF5297531B2
:1003660004AB2AFA0203F8E52C640B452B7017AE92
:1003760029AF2AFC7D0A1201388E298F2A7531048D
:10038600AB2AAA29806CE52C640C452B700DF52947
:10039600F52A753104AB2AAA298057E52C64104545
:1003A6002B7082E52A642E7004E5296416704D7B55
:1003B600FF7A0679447D0C7F0112065D7F647E001C
:1003C6001206A27F147E001207157F647E001206B5
:1003D600A27F147E001207157F647E001206A27F9C
:1003E600147E00120715E4F529F52A753104AB2AA7
:1003F600AA297D017F021206E202032B7BFF7A0601
:1004060079497D0D7F0112065D7FFA7E0012068016
:100416007BFF7A06794D7D017F0212065D7FE87EBD
:1004260003120715E4F529F52A12072A7BFF7A0637
:10043600793A7D017F0112065D753104AB2AAA293E
:0A0446007D017F021206E202032B83
:10071500EF1FAC0670011E4C600A7D027CEFDCFE0B
:04072500DDFC80EC8B
:0107290022AD
:100614004900596F7500040E1F1F0F070301040ED4
:100624001F1F1E1C18104048505860687078000145
:06063400020304050607A5
:06073E00C2A58F80D2A7C6
:080744007F027EEFDEFEDFFC08
:01074C00228A
:0A076400C2A612073EC2A702074416
:1006C400CFCDCFCECCCE1201387C007D0A120138BA
:0406D400ED2430FFE2
:0A06D800D2A612073EC2A702074493
:1006FF00AE07BE0104ED148006BE0209ED243F448F
:06070F0080FF12076422C6
:10072A007F381207647F0C1207647F061207647F02
:04073A00010207644D
:0A076E00AC031206FFAF040206D828
:06065D008B2D8A2E892F6F
:100663001206FFE4FDAB2DAA2EA92F8D8275830000
:0C0673001200F9FF60061206D80D80E9A5
:01067F002258
:0C05E1007F0AEA24FFFDE434FFFC7E00EA
:0805ED008E328F338C348D3502
:1005F5007F017E00E4FBEBC39535E5346480F87438
:0E0605008098500AAC32AD331201260B80E80B
:0106130022C4
:0406E2008A2F8B30A0
:1006E6001206FFAA31EAD39400400D1205E1AC2FA1
:0806F600AD301206C41A80EDBC
:0106FE0022D9
:100536001206FFC3EA64809480400B7F2B1206D814
:100546008A3B8B3C800E7F2D1206D8C3E49BF53C7C
:10055600E49AF53BAA3AEAD39400400D1205E1ACC1
:090566003BAD3C1206C41A80ED05
:01056F002269
:040570008A3F8B40F3
:100574001206FFAA41EAD3940040297F101205E332
:10058400AC3FAD40CFCDCFCECCCE120138EF540F1F
:10059400FEC3940AEE5004243080022437FF12066E
:0405A400D81A80D110
:0105A8002230
:0405A9008A448B45B0
:1005AD001206FFAA46EAD394004028EA24FFFDE490
:1005BD0034FFFC7F027E001205EDAC44AD45CFCD7E
:1005CD00CFCECCCE120138EF54012430FF1206D815
:0305DD001A80D2AF
:0105E00022F8
:1004500078087C007D007BFF7A06791A7E007F0891
:100460001200D378107C007D007BFF7A0679227E13
:10047000007F081200D378187C007D007BFF7A068D
:10048000792A7E007F081200D378207C007D007BD3
:10049000FF7A0679327E007F081200D3E4F52875D2
:1004A0002802E52814FD7BFF7A0679147F011206E5
:1004B0005DE5282402FD7BFF7A0679167F0112068E
:1004C0005D74182528F8E6FF120764E4FD74082D12
:1004D000F8E6FF1206D80DBD08F3AD287F0112061D
:1004E000FF74202528F8E6FF1206D874192528F88D
:1004F000E6FF120764E4FD74102DF8E6FF1206D83B
:100500000DBD08F3E52804FD7F011206FF742125C7
:1005100028F8E6FF1206D87F207E0312071512077F
:100520002AE528B406037528010528E528D3940890
:0505300050030204A2CB
:0105350022A3
:10018D00E4F52D7590FFC2932097137F14FE12078F
:10019D001520970A7FC87E00120715752D01209630
:1001AD00147F147E0012071520960A7FC87E001258
:1001BD000715752D052095147F147E001207152047
:1001CD00950A7FC87E00120715752D092094147F9E
:1001DD00147E0012071520940A7FC87E00120715A1
:1001ED00752D0D7590FFC2922097147F147E00120D
:1001FD00071520970A7FC87E00120715752D02205E
:10020D0096147F147E0012071520960A7FC87E0073
:10021D00120715752D062095147F147E00120715F3
:10022D0020950A7FC87E00120715752D0A2094149B
:10023D007F147E0012071520940A7FC87E001207D6
:10024D0015752D0E7590FFC2912097147F147E00A9
:10025D0012071520970A7FC87E00120715752D030A
:10026D002096147F147E0012071520960A7FC87EF3
:10027D0000120715752D072095147F147E001207A7
:10028D001520950A7FC87E00120715752D0B209439
:10029D00147F147E0012071520940A7FC87E001269
:1002AD000715752D0F7590FFC2902097147F147E42
:1002BD000012071520970A7FC87E00120715752DAD
:1002CD00042096147F147E0012071520960A7FC80D
:1002DD007E00120715752D082095147F147E0012CF
:1002ED00071520950A7FC87E00120715752D0C2065
:1002FD0094147F147E0012071520940A7FC87E0087
:08030D00120715752D10AF2D2C
:0103150022C5
:0A07590000007F067E5DDEFEDFFC7F
:010763002273
:070778000000007F34DFFEEA
:01077F002257
:04068000AD07AC0610
:10068400E4FBFAED25E0FFEC33FEC3EB9FEA9E505A
:0D0694000CB2A51207590BBB00010A80E64D
:0106A1002236
:0406A200AD07AC06EE
:1006A600E4FBFAED25E0FFEC33FEC3EB9FEA9E5038
:0D06B6000CB2A51207780BBB00010A80E60C
:0106C3002214
:0300000002074DA7
:0C074D00787FE4F6D8FD758146020316A3
:10000300E709F608DFFA8046E709F208DFFA803EDF
:1000130088828C83E709F0A3DFFA8032E309F608CC
:10002300DFFA8078E309F208DFFA807088828C8334
:10003300E309F0A3DFFA806489828A83E0A3F608E8
:10004300DFFA805889828A83E0A3F208DFFA804CC2
:1000530080D280FA80C680D4806980F28033801099
:1000630080A680EA809A80A880DA80E280CA803302
:1000730089828A83ECFAE493A3C8C582C8CCC5837A
:10008300CCF0A3C8C582C8CCC583CCDFE9DEE7804A
:100093000D89828A83E493A3F608DFF9ECFAA9F0C9
:1000A300EDFB2289828A83ECFAE0A3C8C582C8CC1F
:1000B300C583CCF0A3C8C582C8CCC583CCDFEADE38
:1000C300E880DB89828A83E493A3F208DFF980CC9A
:1000D30088F0EF60010E4E60C388F0ED2402B40493
:1000E3000050B9F582EB2402B4040050AF2323453A
:0600F3008223900053730C
:1000F900BB010CE58229F582E5833AF583E02250BC
:1001090006E92582F8E622BBFE06E92582F8E22205
:0D011900E58229F582E5833AF583E493221F
:10012600EF8DF0A4A8F0CF8CF0A428CE8DF0A42EED
:02013600FE22A7
:10013800BC000BBE0029EF8DF084FFADF022E4CCAB
:10014800F875F008EF2FFFEE33FEEC33FCEE9DEC74
:10015800984005FCEE9DFE0FD5F0E9E4CEFD22EDBA
:10016800F8F5F0EE8420D21CFEADF075F008EF2F04
:10017800FFED33FD4007985006D5F0F222C398FDF5
:050188000FD5F0EA2292
:00000001FF
