:0800E200020A00000208000000
:0A00D8001200EB1200C1C2A080FE6E
:03000B0002009A56
:04009A00C0E0C0D032
:10009E00758A66758CFC0509E50970020508B4E8D9
:0E00AE000DE508B40308750800750900B2A03E
:0500BC00D0D0D0E032BD
:03000300020006F2
:03000600D2A9324A
:1000C1005389F0438901758A66758CFCC28DD28C87
:0700D100C2A9D2AFC2B9229F
:0700EB00D2AFD2A8C28822A7
:0300000002000EED
:0C000E00787FE4F6D8FD75810B020055E8
:10001A000200D8E493A3F8E493A34003F68001F224
:10002A0008DFF48029E493A3F85407240CC8C333E7
:10003A00C4540F4420C8834004F456800146F6DFB6
:10004A00E4800B01020408102040809000E2E47E64
:10005A00019360BCA3FF543F30E509541FFEE493AB
:10006A00A360010ECF54C025E060A840B8E493A372
:10007A00FAE493A3F8E493A3C8C582C8CAC583CA9D
:10008A00F0A3C8C582C8CAC583CADFE9DEE780BE55
:0100EA000015
:00000001FF
