:10064A0050617373776F72643A005475726500452E
:10065A00727200506C657365612072657772697495
:03066A0065210007
:10031600E4F529F52A12073A7BFF7A06794A7D0128
:100326007F0112066D12018D752B008F2CE52C4571
:100336002B60F2D3E52C940AE52B94005029AE2BC2
:100346007C007D0A120138AA04AB05AE29AF2A7CCF
:10035600007D0A120126EF2BF52AEE3AF5297531B2
:1003660004AB2AFA020408E52C640B452B7017AE81
:1003760029AF2AFC7D0A1201388E298F2A7531048D
:10038600AB2AAA29807CE52C640C452B700DF52937
:10039600F52A753104AB2AAA298067E52C64104535
:1003A6002B7082E52A642E7004E5296416705D7B45
:1003B600FF7A0679547D0C7F0112066D7F647E00FC
:1003C6001206B27F147E001207257F647E00120695
:1003D600B27F147E001207257F647E001206B27F6C
:1003E600F47E01120725E4F529F52A12073A7BFF68
:1003F6007A06794A7D017F0112066D753104AB2AB2
:10040600AA297D017F021206F202032B7BFF7A06E0
:1004160079597D0D7F0112066D7FFA7E00120690D6
:100426007BFF7A06795D7D017F0212066D7FE87E8D
:1004360003120725E4F529F52A12073A7BFF7A0607
:10044600794A7D017F0112066D753104AB2AAA290E
:0A0456007D017F021206F202032B63
:10072500EF1FAC0670011E4C600A7D027CEFDCFEFB
:04073500DDFC80EC7B
:01073900229D
:100624004900596F7500040E1F1F0F070301040EC4
:100634001F1F1E1C18104048505860687078000135
:0606440002030405060795
:06074E00C2A58F80D2A7B6
:080754007F027EEFDEFEDFFCF8
:01075C00227A
:0A077400C2A612074EC2A7020754E6
:1006D400CFCDCFCECCCE1201387C007D0A120138AA
:0406E400ED2430FFD2
:0A06E800D2A612074EC2A702075463
:10070F00AE07BE0104ED148006BE0209ED243F447E
:06071F0080FF12077422A6
:10073A007F381207747F0C1207747F061207747FC2
:04074A00010207742D
:0A077E00AC0312070FAF040206E8F7
:06066D008B2D8A2E892F5F
:1006730012070FE4FDAB2DAA2EA92F8D82758300DF
:0C0683001200F9FF60061206E80D80E985
:01068F002248
:0C05F1007F0AEA24FFFDE434FFFC7E00DA
:0805FD008E328F338C348D35F2
:100605007F017E00E4FBEBC39535E5346480F87427
:0E0615008098500AAC32AD331201260B80E8FB
:0106230022B4
:0406F2008A2F8B3090
:1006F60012070FAA31EAD39400400D1205F1AC2F70
:08070600AD301206D41A80ED9B
:01070E0022C8
:1005460012070FC3EA64809480400B7F2B1206E8E3
:100556008A3B8B3C800E7F2D1206E8C3E49BF53C5C
:10056600E49AF53BAA3AEAD39400400D1205F1ACA1
:090576003BAD3C1206D41A80EDE5
:01057F002259
:040580008A3F8B40E3
:1005840012070FAA41EAD3940040297F101205F301
:10059400AC3FAD40CFCDCFCECCCE120138EF540F0F
:1005A400FEC3940AEE5004243080022437FF12065E
:0405B400E81A80D1F0
:0105B8002220
:0405B9008A448B45A0
:1005BD0012070FAA46EAD394004028EA24FFFDE46F
:1005CD0034FFFC7F027E001205FDAC44AD45CFCD5E
:1005DD00CFCECCCE120138EF54012430FF1206E8F5
:0305ED001A80D29F
:0105F00022E8
:1004600078087C007D007BFF7A06792A7E007F0871
:100470001200D378107C007D007BFF7A0679327EF3
:10048000007F081200D378187C007D007BFF7A067D
:10049000793A7E007F081200D378207C007D007BB3
:1004A000FF7A0679427E007F081200D3E4F52875B2
:1004B0002802E52814FD7BFF7A0679247F011206C5
:1004C0006DE5282402FD7BFF7A0679267F0112065E
:1004D0006D74182528F8E6FF120774E4FD74082DE2
:1004E000F8E6FF1206E80DBD08F3AD287F011207FC
:1004F0000F74202528F8E6FF1206E874192528F85D
:10050000E6FF120774E4FD74102DF8E6FF1206E80A
:100510000DBD08F3E52804FD7F0112070F742125A6
:1005200028F8E6FF1206E87F207E0312072512074F
:100530003AE528B406037528010528E528D3940870
:0505400050030204B2AB
:010545002293
:10018D00E4F52D7590FFC2932097137F14FE12078F
:10019D002520970A7FC87E00120725752D01209610
:1001AD00147F147E0012072520960A7FC87E001248
:1001BD000725752D052095147F147E001207252027
:1001CD00950A7FC87E00120725752D092094147F8E
:1001DD00147E0012072520940A7FC87E0012072581
:1001ED00752D0D7590FFC2922097147F147E00120D
:1001FD00072520970A7FC87E00120725752D02203E
:10020D0096147F147E0012072520960A7FC87E0063
:10021D00120725752D062095147F147E00120725D3
:10022D0020950A7FC87E00120725752D0A2094148B
:10023D007F147E0012072520940A7FC87E001207C6
:10024D0025752D0E7590FFC2912097147F147E0099
:10025D0012072520970A7FC87E00120725752D03EA
:10026D002096147F147E0012072520960A7FC87EE3
:10027D0000120725752D072095147F147E00120797
:10028D002520950A7FC87E00120725752D0B209419
:10029D00147F147E0012072520940A7FC87E001259
:1002AD000725752D0F7590FFC2902097147F147E32
:1002BD000012072520970A7FC87E00120725752D8D
:1002CD00042096147F147E0012072520960A7FC8FD
:1002DD007E00120725752D082095147F147E0012BF
:1002ED00072520950A7FC87E00120725752D0C2045
:1002FD0094147F147E0012072520940A7FC87E0077
:08030D00120725752D10AF2D1C
:0103150022C5
:0A07690000007F067E5DDEFEDFFC6F
:010773002263
:070788000000007F34DFFEDA
:01078F002247
:04069000AD07AC0600
:10069400E4FBFAED25E0FFEC33FEC3EB9FEA9E504A
:0D06A4000CB2A51207690BBB00010A80E62D
:0106B1002226
:0406B200AD07AC06DE
:1006B600E4FBFAED25E0FFEC33FEC3EB9FEA9E5028
:0D06C6000CB2A51207880BBB00010A80E6EC
:0106D3002204
:0300000002075D97
:0C075D00787FE4F6D8FD75814602031693
:10000300E709F608DFFA8046E709F208DFFA803EDF
:1000130088828C83E709F0A3DFFA8032E309F608CC
:10002300DFFA8078E309F208DFFA807088828C8334
:10003300E309F0A3DFFA806489828A83E0A3F608E8
:10004300DFFA805889828A83E0A3F208DFFA804CC2
:1000530080D280FA80C680D4806980F28033801099
:1000630080A680EA809A80A880DA80E280CA803302
:1000730089828A83ECFAE493A3C8C582C8CCC5837A
:10008300CCF0A3C8C582C8CCC583CCDFE9DEE7804A
:100093000D89828A83E493A3F608DFF9ECFAA9F0C9
:1000A300EDFB2289828A83ECFAE0A3C8C582C8CC1F
:1000B300C583CCF0A3C8C582C8CCC583CCDFEADE38
:1000C300E880DB89828A83E493A3F208DFF980CC9A
:1000D30088F0EF60010E4E60C388F0ED2402B40493
:1000E3000050B9F582EB2402B4040050AF2323453A
:0600F3008223900053730C
:1000F900BB010CE58229F582E5833AF583E02250BC
:1001090006E92582F8E622BBFE06E92582F8E22205
:0D011900E58229F582E5833AF583E493221F
:10012600EF8DF0A4A8F0CF8CF0A428CE8DF0A42EED
:02013600FE22A7
:10013800BC000BBE0029EF8DF084FFADF022E4CCAB
:10014800F875F008EF2FFFEE33FEEC33FCEE9DEC74
:10015800984005FCEE9DFE0FD5F0E9E4CEFD22EDBA
:10016800F8F5F0EE8420D21CFEADF075F008EF2F04
:10017800FFED33FD4007985006D5F0F222C398FDF5
:050188000FD5F0EA2292
:00000001FF
