:03020A00011400DC
:100168001201DE120107BF01020514E5147004F53F
:10017800138026E514B40105751332801CE514B408
:10018800020575134B8012E514B4030575136480DA
:1001980008E514B40403E4F514E514FD7C007F01BC
:0501A80012009A80BE68
:03000B000201AD42
:1001AD00C0E0C0D0758A66758CFC0512E512D3953A
:1001BD00135004D2908015E512D395134004C290CC
:1001CD00800AE512D394644003751200D0D0D0E0BC
:0101DD0032EF
:1001DE005389F0438901758A66758CFCC28DD28C69
:0701EE00D2A9D2AFD2B92261
:07000300D2AFD2A8C288228F
:10010700E4F51520B1137F14FE1201F530B1FD7F20
:10011700147E001201F575150120B0147F147E00BE
:100127001201F530B0FD7F147E001201F57515023E
:1001370020B2147F147E001201F530B2FD7F147EC9
:10014700001201F575150320B3147F147E00120108
:10015700F530B3FD7F147E001201F5751504AF1558
:010167002275
:0C020D000A083F065B4F666D7D077F6F9F
:10009A00EF14B4080050549000AF75F003A4C58360
:1000AA0025F0C583730200C70200CB0200CF02000D
:1000BA00D30200D70200DF0200E70200EFD2A480D9
:1000CA000ED2A48012D2A48016D2A4801AC2A4D2BC
:1000DA00A3D2A28016C2A4D2A3C2A2800EC2A4C274
:1000EA00A3D2A28006C2A4C2A3C2A274082DF8E6B3
:0D00FA00F5807F017E001201F5E4F5802203
:1001F500EF1FAC0670011E4C600A7D027CEFDCFE31
:04020500DDFC80ECB0
:0102090022D2
:0300000002000EED
:0C000E00787FE4F6D8FD758115020055DE
:10001A00020168E493A3F8E493A34003F68001F293
:10002A0008DFF48029E493A3F85407240CC8C333E7
:10003A00C4540F4420C8834004F456800146F6DFB6
:10004A00E4800B010204081020408090020AE47E3A
:10005A00019360BCA3FF543F30E509541FFEE493AB
:10006A00A360010ECF54C025E060A840B8E493A372
:10007A00FAE493A3F8E493A3C8C582C8CAC583CA9D
:10008A00F0A3C8C582C8CAC583CADFE9DEE780BE55
:0102190000E4
:00000001FF
